:100000000C94DD050C9405060C9405060C9405066D
:100010000C9405060C9405060C9405060C94050634
:100020000C9405060C9405060C94DB1F0C944D20D3
:100030000C9405060C9405060C9405060C94050614
:100040000C9405060C9405060C9405060C94050604
:100050000C9405060C9405060C9405060C94021BE2
:100060000C9405060C9405060C9405060C940506E4
:100070000C9405060C9405060C9405060C940506D4
:100080000C9405060C9405060C9405060C940506C4
:100090000C94A51B0C9405060C9405060C940506FF
:1000A0000C9405060C944C1B0C940506D407D90738
:1000B000DE07E807F2073C083C083C08FC07060896
:1000C00010081A0827083C082F086A166D165C16D7
:1000D000601666168E168E168E16711675167916A1
:1000E0007F1683168E168916000000002400270054
:1000F0002A002D003000DB40A4A62EAFDA0281DA00
:100100001281DA02818F2000A1C8D300408DAED5C4
:1001100080A8000060000000000000000000000057
:10012000000000E0000000000000000000000000EF
:100130000001E000000000000000000000000000DE
:1001400001F00000000000000000000000000003BB
:10015000F00000000000000000000000000007F0B8
:100160000000000000000000000000000007F80090
:100170000000000000000000000000000FF8000078
:100180000003C0007E000001E0007F0FF8000000C7
:1001900003C000FE000001E000FFEFF800000003D4
:1001A000C000FE000001E000FFFFF800000003C0F7
:1001B00000F00000000F007FFE7FC0000003C000C1
:1001C000F00000000F003FFE7FF83FF1FBCFFCFE88
:1001D000F3BC3DEFE01FFE7FFF7FFBFFDFFEFEFF76
:1001E000BC3DEFE01FC6FFFF7FFBFFDFFEFEFFBC55
:1001F0003DEFE00FE3C7FE787BC3DE1EF0FFBC3DA2
:10020000EF0007FF87FC787BC3DE1EF0F83C3DEF74
:100210000001FFFFF0007BC3C01EF0F03C3DEF008B
:1002200001F37FE03FFBC3CFFEF0F03C3DEF000366
:10023000E33F807FFBC3DFFEF0F03C3DEF0007E7CC
:100240003C00787BC3DE1EF0F03C3DEF0007FFBEB4
:1002500000787BC3DE1EF0F03C3DEF0007FFFE00A0
:10026000787BC3DE1EF0F03C3DEF000FFFFE007F09
:10027000FBFFDFFEF0F03FFDEFE00FFFFF007FFB35
:10028000FFDFFEF0F03FFDEFE00FF9FF003E79F9F0
:10029000CF9EF0F01F3DE7E01FF1FF0000000000DF
:1002A000000000000000001F80FF007FFFFFFFFF35
:1002B000FFFFFFFFFFE01C007F007FFFFFFFFEB49A
:1002C0006D888D18E000001F007FFFFFFFFE95ADD9
:1002D0007DB577E000000F007FFFFFFFFEA5AD9D1D
:1002E0008D19E0000006007FFFFFFFFEB5ADEDB504
:1002F0007EE000000000000180000000000000001F
:100300000000038000000000000000000007C000A3
:10031000000000000000000007C000000000000016
:100320000000000FC00000000000000000001FE0FF
:100330000000000000000000001FE00000000000BE
:10034000000000003FE00000000000000000003F4F
:10035000F00000000000000000007FF0000000003E
:100360000000001FF87FF0000000000000003FFECA
:100370007FF0000000000000003FFF7FF000000061
:10038000000000001FFFFBE0000000000000000F65
:10039000FFF9FFC00000000000000FFFF9FFF800A8
:1003A000000000000007FFF1FFFF00000000000058
:1003B00003FC73FFFF80000000000001FE3FFFFF11
:1003C00080000000000000FF1E0FFF000000000082
:1003D00000007FFE1FFC000000000000003FFFFF48
:1003E000F8000000000000000FDFFFE00000000048
:1003F0000000001F19FFC0000000000000003F3C8B
:10040000FF00000000000000007E7CF800000000FB
:10041000000000007FFE7C0000000000000000FFE4
:10042000FFFC0000000000000000FFFFFE000000D5
:100430000000000000FFFFFE0000000000000001BF
:10044000FFEFFE0000000000000001FFCFFE0000F3
:10045000000000000003FF07FE0000000000000095
:1004600003FC07FE0000000000000003F003FE0094
:10047000000000000000018000FE000000000000FD
:10048000000000007E000000000000000000003EB0
:10049000000000000000000000000C000000000050
:1004A00000078000FC000003C0000000078001FC82
:1004B000000003C0000000078001FC000003C00032
:1004C0000000078001E00000001E0000000780011E
:1004D000E00000001E007FE3F79FF9FDE7787BDF77
:1004E000C0FFF7FFBFFDFDFF787BDFC0FFF7FFBF59
:1004F000FDFDFF787BDFC0F0F787BC3DE1FF787B37
:10050000DE00F0F787BC3DE1F0787BDE0000F78786
:10051000803DE1E0787BDE007FF7879FFDE1E078BA
:100520007BDE00FFF787BFFDE1E0787BDE00F0F7C0
:1005300087BC3DE1E0787BDE00F0F787BC3DE1E081
:10054000787BDE00F0F787BC3DE1E0787BDE00FFE2
:10055000F7FFBFFDE1E07FFBDFC0FFF7FFBFFDE17D
:10056000E07FFBDFC07CF3F39F3DE1E03E7BCFC04B
:100570000000000000000000000000FFFFFFFFFF80
:10058000FFFFFFFFFFC0FFFFFFFFFD68DB111A3118
:10059000C0FFFFFFFFFD2B5AFB6AEFC0FFFFFFFF0D
:1005A000FD4B5B3B1A33C0FFFFFFFFFD6B5BDB6A5C
:1005B000FDC0000103070F1F3F7F0080C0E0F0F87F
:1005C000FCFE2200FF21000000000023002600297D
:1005D000002C002F000000000200090F000003049F
:1005E00001000C00000000000000000000000000FE
:1005F00000000000080B00020202010009040000D4
:10060000010202000005240010010524010101047B
:100610002402060524060001070581031000400995
:10062000040100020A000000070502024000000762
:100630000583024000000403090412010002EF02D6
:1006400001404123368000010102030141726475BB
:10065000696E6F204C4C430041726475696E6F2067
:100660004C656F6E6172646F0000000000003E5BBD
:100670004F5B3E3E6B4F6B3E1C3E7C3E1C183C7EEF
:100680003C181C577D571C1C5E7F5E1C00183C18D4
:1006900000FFE7C3E7FF0018241800FFE7DBE7FFD0
:1006A00030483A060E2629792926407F050507405D
:1006B0007F05253F5A3CE73C5A7F3E1C1C08081C1E
:1006C0001C3E7F14227F22145F5F005F5F06097F5C
:1006D000017F006689956A606060606094A2FFA2F5
:1006E0009408047E040810207E201008082A1C08A4
:1006F000081C2A08081E101010100C1E0C1E0C30AE
:10070000383E3830060E3E0E0600000000000000A5
:100710005F00000007000700147F147F14242A7F65
:100720002A12231308646236495620500008070332
:1007300000001C2241000041221C002A1C7F1C2AB0
:1007400008083E0808008070300008080808080003
:100750000060600020100804023E5149453E0042FE
:100760007F400072494949462141494D33181412CE
:100770007F1027454545393C4A49493141211109F6
:10078000073649494936464949291E0000140000E8
:100790000040340000000814224114141414140002
:1007A0004122140802015909063E415D594E7C124E
:1007B00011127C7F494949363E414141227F4141E6
:1007C000413E7F494949417F090909013E41415163
:1007D000737F0808087F00417F41002040413F01AE
:1007E0007F081422417F404040407F021C027F7FEF
:1007F0000408107F3E4141413E7F090909063E4100
:1008000051215E7F09192946264949493203017F52
:1008100001033F4040403F1F2040201F3F403840E1
:100820003F631408146303047804036159494D437A
:10083000007F4141410204081020004141417F04F2
:1008400002010204404040404000030708002054D9
:100850005478407F28444438384444442838444439
:10086000287F385454541800087E090218A4A49C08
:10087000787F0804047800447D40002040403D001B
:100880007F1028440000417F40007C047804787C7D
:10089000080404783844444438FC182424181824E4
:1008A0002418FC7C08040408485454542404043FCD
:1008B00044243C4040207C1C2040201C3C403040D4
:1008C0003C44281028444C9090907C4464544C4400
:1008D00000083641000000770000004136080002A1
:1008E000010204023C2623263C1EA1A161123A40CB
:1008F00040207A3854545559215555794122545441
:100900007842215554784020545579400C1E52723B
:100910001239555555593954545459395554545818
:100920000000457C410002457D420001457C407D40
:100930001211127DF0282528F07C545545002054D2
:10094000547C547C0A097F4932494949323A44442B
:10095000443A324A4848303A4141217A3A424020AA
:1009600078009DA0A07D3D4242423D3D4040403D3B
:100970003C24FF2424487E4943662B2FFC2F2BFF69
:100980000929F620C0887E090320545479410000CB
:10099000447D413048484A32384040227A007A0A41
:1009A0000A727D0D19317D2629292F28262929290A
:1009B0002630484D4020380808080808080808383C
:1009C0002F10C8ACBA2F102834FA00007B000008A2
:1009D000142A142222142A14085500550055AA5529
:1009E000AA55AAFF55FF55FF000000FF0010101088
:1009F000FF00141414FF001010FF00FF1010F0107F
:100A0000F0141414FC001414F700FF0000FF00FFA2
:100A10001414F404FC141417101F10101F101F14CA
:100A200014141F00101010F0000000001F10101010
:100A3000101F10101010F010000000FF1010101008
:100A40001010101010FF10000000FF140000FF0035
:100A5000FF00001F10170000FC04F41414171017F7
:100A60001414F404F40000FF00F714141414141404
:100A700014F700F7141414171410101F101F141477
:100A800014F4141010F010F000001F101F000000EC
:100A90001F14000000FC140000F010F01010FF10F4
:100AA000FF141414FF141010101F00000000F010A9
:100AB000FFFFFFFFFFF0F0F0F0F0FFFFFF0000008E
:100AC0000000FFFF0F0F0F0F0F3844443844FC4A5B
:100AD0004A4A347E02020606027E027E02635549BD
:100AE00041633844443C04407E201E2006027E02BE
:100AF0000299A5E7A5991C2A492A1C4C7201724C3F
:100B0000304A4D4D303048784830BC625A463D3E00
:100B1000494949007E0101017E2A2A2A2A2A4444A1
:100B20005F444440514A444040444A51400000FF21
:100B30000103E080FF000008086B6B0836123624C2
:100B400036060F090F0600001818000000101000EC
:100B50003040FF0101001F01011E00191D17120086
:100B60003C3C3C3C000000000004080201104080B6
:100B70004010204080408008020401804020100284
:100B800001108010204040200000000025002800B7
:100B90002B002E00310004040404040304050202A7
:100BA0000202040302020202060606060606040406
:100BB000020202040400752E5F2811241FBECFEF2D
:100BC000DAE0DEBFCDBF12E0A0E0B1E0E0E4F7E69E
:100BD00002C005900D92A43AB107D9F727E0A4EA24
:100BE000B2E001C01D92A43DB207E1F715E0CCEDE3
:100BF000D5E004C02197FE010E942332CB3DD107EE
:100C0000C9F70E94AD280C9493330C940000FC01AA
:100C1000858183FB882780F90895FC01858183FF06
:100C200003C08581877F85830895FC018581843099
:100C300018F08581886085830895CF93DF93EC0158
:100C40008D8183FD1AC08D8184FF17C0809193032D
:100C50008F5F8093930385E08D83E881F981028023
:100C6000F381E02DCE01099584E08D83809193037B
:100C700081508093930381E001C080E0DF91CF91A8
:100C80000895CF93DF93FC012581223050F0EC01D1
:100C90000190F081E02D0190F081E02D099584E034
:100CA0008D83DF91CF910895DC011696ED91FC9133
:100CB0001797309709F009940895DC011696ED9185
:100CC000FC911797309709F0099408956F927F92DD
:100CD0008F929F92AF92BF92CF92DF92EF92FF924C
:100CE0000F931F93CF93DF939C01E0901801F09036
:100CF0001901E4E6F0E0C701BF010E94CE31662E83
:100D00004C0100911A0110911B01C801BF010E9402
:100D1000CE31762E5C01C0911C01D0911D01CE0117
:100D2000BF010E94CE31462F6C0121303105F1F513
:100D3000E0901201F090130100911401109115013F
:100D4000C0911601D0911701C701BF010E94CE3199
:100D5000605D60931E022AE030E0B9010E94CE314E
:100D6000605D60931F02C701B9010E94CE31805DB2
:100D700080932002C801BF010E94CE31605D609364
:100D80002102B9010E94CE31605D60932202C80148
:100D9000B9010E94CE31805D80932302CE01BF0154
:100DA0000E94CE31605D609324022AC080E3860DEC
:100DB00080931E022AE030E0C401B9010E94CE31C6
:100DC000605D60931F02C701B9010E94CE31805D52
:100DD0008093200280E3870D80932102C501B90131
:100DE0000E94CE31605D60932202C801B9010E9469
:100DF000CE31805D80932302405D40932402C60182
:100E0000B9010E94CE31605D60932502CE01B90127
:100E10000E94CE31805D80932602DF91CF911F9199
:100E20000F91FF90EF90DF90CF90BF90AF909F9089
:100E30008F907F906F9008956F927F928F929F9284
:100E4000AF92BF92CF92DF92EF92FF920F931F93D8
:100E5000CF93DF937C0180918A0490E0209106017A
:100E6000309107018217930719F520918B0430E028
:100E70008091080190910901029728173907C1F460
:100E80002091290130912A012F5F3F4F80918D04DD
:100E900090E02817390761F481E08093AD02CC24FB
:100EA000C394DD24DA9490EE692E95E0792E4DC03E
:100EB0001092AD02F4CF00910E0110910F01A0919C
:100EC0000A01B0910B0120E83EEE46E350E00E949B
:100ED00030324B015C01A0910C01B0910D0120E674
:100EE0003AEE0E942932680D791D8A1D9B1D9801DA
:100EF000012E000C440B550B0E94043249015A018B
:100F0000809193038F5F809393031092AD02C6018B
:100F1000B8010E94CE31C60FD71FD0931F01C093D6
:100F20001E0161E08BE00E94651A209759F560E090
:100F30008BE00E94361AB501A401C7010E94D32597
:100F4000809193038150809393038091AE02882314
:100F500009F497C0C0911E01D0911F011C161D06F7
:100F60000CF4A9CF1092AD0210921F0110921E0135
:100F70001092AE0260E08BE00E94361A81E080930E
:100F8000AC027FC0CF3FD10511F461E0D1CFF301B6
:100F9000849190E0FC013197EF30F10508F06CC0CE
:100FA000EA5AFF4F0C94233284B5806884BDC7BDD4
:100FB000C2CF84B5806284BDC8BDBDCF80918000A2
:100FC000806880938000D0938900C0938800B3CF5D
:100FD00080918000806280938000D0938B00C093CA
:100FE0008A00A9CF80918000886080938000D09390
:100FF0008D00C0938C009FCF80919000806880937B
:101000009000D0939900C093980095CF8091900064
:10101000806280939000D0939B00C0939A008BCF06
:1010200080919000886080939000D0939D00C09341
:101030009C0081CF8091C00080688093C000809127
:10104000C0008F7B8093C000C093CF0074CF80918D
:10105000C00080628093C000C093D0006CCF8091AC
:10106000C20088608093C2008091C2008B7F809311
:10107000C200C093D2005FCFC038D1050CF085CF3D
:1010800056CFDF91CF911F910F91FF90EF90DF909E
:10109000CF90BF90AF909F908F907F906F9008956A
:1010A0000F931F93CF93DF93EC01009110011091E8
:1010B00011010A30110514F40E940C26809193034B
:1010C0008F5F8093930361E086E00E94361A48ECBC
:1010D00050E060E070E0CE010E94D32560E086E041
:1010E0000E94361A8091930381508093930388EE77
:1010F00093E0089FA001099F500D189F500D1124E7
:10110000052E000C660B770BCE01DF91CF911F915E
:101110000F910C94D325EF92FF920F931F93CF93CF
:10112000DF937C018DE00E940D1AEC018CE00E949F
:101130000D1A8C0181E00E940D1A019721F544E6F9
:1011400050E060E070E0C7010E94D32581E00E947A
:101150000D1A019791F44CE251E060E070E0C70194
:101160000E94D32581E00E940D1A8130910539F04B
:10117000109205011092040106C082E090E0909365
:101180000501809304018091020190910301C81729
:10119000D90739F42091000130910101021713079A
:1011A00061F0019751F4209741F4809100019091F2
:1011B0000101880F991F019702C080E090E0D09351
:1011C0000301C093020110930101009300012091DB
:1011D000AA023091AB02820F931F9093AB028093CF
:1011E000AA02DF91CF911F910F91FF90EF90089588
:1011F000CF93DF93EC018091AD02882309F459C0AD
:101200008091370490913804892B51F02091160178
:10121000409112016091140180E090E00E94F0265C
:101220008091370490913804029750F020911C016E
:101230004091180160911A0181E090E00E94F0262F
:1012400080913E0490913F04892B11F00E94372633
:101250004CEB52E060E070E0CE010E94D32580911B
:10126000370490913804029738F020E040E060E0C5
:1012700081E090E00E94F02680913704909138043C
:10128000892B39F020E040E060E080E090E00E94AF
:10129000F02680913E0490913F04892B11F00E942A
:1012A00037264CEB52E060E070E0CE010E94D3257F
:1012B000A2CF4CE251E060E070E0CE01DF91CF912F
:1012C0000C94D3256F927F928F929F92AF92BF9290
:1012D000CF92DF92EF92FF920F931F93CF93DF9302
:1012E000EC011092A9021092A8021092AB02109287
:1012F000AA0202E010E0EE24E394F12CFBE3CF2EEF
:10130000D12CA7E1AA2EB12CBAE08B2E912C80E132
:10131000682E712C8091A6029091A702892B09F06A
:10132000B8C020910401309105012130310591F4BC
:10133000809193038F5F8093930310930501009333
:1013400004013093A7022093A60280919303815059
:10135000809393038091040190910501892BF9F406
:101360008091A8029091A902892B49F4F092A902D8
:10137000E092A8021092AB021092AA020CC0109246
:10138000A9021092A8028091060190910701909302
:10139000AB028093AA02109305010093040180918F
:1013A000AA029091AB022091A8023091A9028C333D
:1013B000910590F42130310529F49093090180932F
:1013C000080128C0232B31F5883191055CF49093F6
:1013D0000701809306011EC08C33910544F0213033
:1013E000310529F41092AB021092AA0213C0211504
:1013F000310539F4489774F4B092AB02A092AA0276
:1014000009C02130310531F497FF04C0D092AB02FE
:10141000C092AA02809106019091070120910801D3
:1014200030910901B4010E94CE31605D60932D02BC
:10143000805D80932E02C901B4010E94CE31605DAF
:1014400060933002805D809331020E94A811109257
:1014500058041092570410925A041092590483E3CE
:1014600092E00E948B1410925804109257047092CC
:101470005A046092590488E292E00E948B140E9400
:10148000D91244EF51E060E070E0CE010E94D32514
:1014900041CF82E090E09093A9028093A80210923D
:1014A000AB021092AA0202E010E033E6E32EF12C28
:1014B0004BE3C42ED12C59E0A52EB12C6AE0862E28
:1014C000912C70E1672E712C8091A6029091A70259
:1014D000019709F0EDC080910401909105010197F9
:1014E00091F4809193038F5F809393031093050190
:1014F000009304011093A7020093A6028091930326
:1015000081508093930320910401309105018091D3
:10151000A8029091A902232BB1F59C012250310918
:1015200022303105A8F401969093A9028093A80275
:10153000880F991FFC01EA5FFE4F80819181909393
:10154000AB028093AA0210930501009304016BC0C3
:10155000809193038F5F809393031093A90200936C
:10156000A80280910A0190910B019093AB028093A5
:10157000AA02109305010093040180919303815006
:101580008093930350C02091AA023091AB022A307D
:10159000310544F08230910529F41092AB0210928B
:1015A000AA0211C08230910571F437FF05C0B092D4
:1015B000AB02A092AA0207C02A30310524F430936E
:1015C0000B0120930A018330910599F48091AA02BE
:1015D0009091AB028C339105ACF497FF05C0D0928B
:1015E000AB02C092AA021FC090930D0180930C0120
:1015F0001AC00497C1F48091AA029091AB0284367C
:1016000091052CF01092AB021092AA020CC0181691
:1016100019062CF0F092AB02E092AA0204C090935B
:101620000F0180930E0140910C0150910D0120910A
:101630000E0130910F0190910A01905D90933E024E
:10164000CA01B4010E94CE31605D60934002805DAA
:1016500080934102C901B4010E94CE31605D609364
:101660004602805D809347020E94A81110925804A0
:101670001092570410925A041092590489E492E08F
:101680000E948B14109258041092570470925A04BE
:10169000609259048EE392E00E948B140E94D9124A
:1016A0004CE251E060E070E0CE010E94D3250CCF07
:1016B00084E190E09093AB028093AA0203E010E0F3
:1016C000FCE2EF2EFF24F394A4E6CA2ED12CBAE05C
:1016D0008B2E912C80E1A82EB12C2091A602309166
:1016E000A7022230310509F06BC08091040190916E
:1016F0000501019791F4809193038F5F8093930389
:1017000030930501209304011093A7020093A602D1
:10171000809193038150809393038091AA029091CA
:10172000AB028D3221E092070CF05DC29093110163
:10173000809310018091AA029091AB0297FF04C0A0
:10174000F092AB02E092AA022091100130911101B7
:10175000C901B6010E94CE31605D60935402B401AC
:101760000E94CE31605D60935502C901B4010E94B0
:10177000CE31805D809356020E94A81110925804C9
:101780001092570410925A04109259048BE592E07B
:101790000E948B141092580410925704B0925A046D
:1017A000A092590484E592E00E948B140E94D91201
:1017B00040E951E060E070E0CE010E94D3258DCF7A
:1017C0001092AB021092AA0286E090E09093A902D8
:1017D0008093A8027724739452E0852E912C64E0C4
:1017E000E62EF12C76E0C72ED12CAA24AA94B12C97
:1017F00000E110E08091A6029091A702039709F002
:1018000092C07092AD028091040190910501019700
:1018100091F4809193038F5F8093930390920501DD
:1018200080920401F092A702E092A60280919303B5
:101830008150809393038091A8029091A9029C010A
:101840002650310923303105C0F52091AA0230918C
:10185000AB022F3F310509F040F4FC01EE0FFF1FF2
:10186000EA5FFE4F318320830DC02F3F310531F0F9
:101870002CF01092AB021092AA0204C0B092AB02FC
:10188000A092AA022091040130910501232BC9F4F2
:1018900001969093A9028093A802880F991FFC01DA
:1018A000EA5FFE4F808191819093AB028093AA0200
:1018B000909205018092040104C0D092A902C092C6
:1018C000A802809193038F5F8093930381E090E05F
:1018D0000E946606809193038150809393030E9437
:1018E000A811109258041092570410925A041092A2
:1018F000590486E692E00E948B14109258041092CC
:10190000570410935A04009359048EE192E00E9408
:101910008B140E94D9124CE251E060E070E0CE01DD
:101920000E94D32567CF1092AB021092AA0289E0E1
:1019300090E09093A9028093A80299249394F9E0EF
:10194000EF2EF12CA2E0CA2ED12CAA24AA94B12CFD
:1019500000E110E08091A6029091A7020497F9F4AB
:101960009092AD0240910401509105014130510522
:10197000F9F4809193038F5F8093930382E090E06A
:10198000909305018093040185E090E09093A70275
:101990008093A6028091930381508093930370E11A
:1019A000C72ED12CE2E0EE2EF12C06E010E074C040
:1019B0008091A8029091A9029C01295031092330FD
:1019C0003105A0F52091AA023091AB022F3F3105DD
:1019D00009F040F4FC01EE0FFF1FEA5FFE4F318378
:1019E00020830DC02F3F310531F02CF01092AB0257
:1019F0001092AA0204C0B092AB02A092AA02452B98
:101A0000C9F401969093A9028093A802880F991FA8
:101A1000FC01EA5FFE4F808191819093AB0280933D
:101A2000AA02D0920501C092040104C0F092A9025A
:101A3000E092A802809193038F5F8093930382E0EA
:101A400090E00E94660680919303815080939303F7
:101A50000E94A811109258041092570410925A0430
:101A60001092590481E792E00E948B14109258045E
:101A70001092570410935A04009359048EE192E097
:101A80000E948B140E94D9124CE251E060E070E099
:101A9000CE010E94D3255ECF8091A6029091A7022D
:101AA0008530910509F040C00E94A8111092580499
:101AB0001092570410925A04109259048CE792E045
:101AC0000E948B141092580410925704D0925A041A
:101AD000C092590487E892E00E948B140E94D912A8
:101AE00040ED57E060E070E0CE010E94D32560E059
:101AF00070E08BE494E00E9471170E94D9128091EB
:101B000093038F5F809393031092AD02F0920501CF
:101B1000E09204011093A7020093A6028091930320
:101B2000815080939303B8CF069709F061C08091EC
:101B3000AC02811143C00E949410E32F20938A04C9
:101B400030938B0440938C0450938D0460938E04E7
:101B500070938F04809390049093910430E080916F
:101B6000060190910701821793077CF4852F90E07E
:101B70002091290130912A012F5F3F4F821793074F
:101B8000E9F481E08093AE0219C028173907B1F457
:101B9000852F90E02091290130912A012F5F3F4F3E
:101BA0008217930759F48E2F90E02091080130910D
:101BB0000901821793072CF71092AE0248E650E114
:101BC00060E070E0CE01DF91CF911F910F91FF9007
:101BD000EF90DF90CF90BF90AF909F908F907F90CD
:101BE0006F900C94D3251092AB021092AA02A2CD52
:101BF000DF91CF911F910F91FF90EF90DF90CF90E9
:101C0000BF90AF909F908F907F906F9008950F93AB
:101C10001F93FC0180819181A281B3814FB7F89419
:101C20000091220310912303209124033091250376
:101C30004FBFBC01CD01601B710B820B930B97FF53
:101C400003C060E070E0CB011F910F9108950F93E6
:101C50001F93FC012FB7F8948091220390912303E6
:101C6000A0912403B09125032FBF8C019D01040F87
:101C7000151F261F371FC901B80100831183228356
:101C800033831F910F9108952F923F924F925F924D
:101C90006F927F928F929F92AF92BF92CF92DF927C
:101CA000EF92FF920F931F93CF93DF93EB012DB62B
:101CB0003EB628823982EC01288039804FB6F894EC
:101CC0003EBE2DBE4FBEDF91CF911F910F91FF9071
:101CD000EF90DF90CF90BF90AF909F908F907F90CC
:101CE0006F905F904F903F902F900895CF93DF9328
:101CF000FC0120853185232B09F48DC0EC01858101
:101D000081FF56C0F8946DE873E0CB010E94440E49
:101D10008D8182FF39C085E08D838D8183FD2CC04C
:101D2000E881F9810684F785E02DCE0109958C853F
:101D30009D85009709F10FB6F89466B515B27091BC
:101D400089030FBE10FE03C06F3F09F071501124CC
:101D50000024770F770F660F001C660F001C702998
:101D60002E853F85621B730B681779070CF4D5CF5E
:101D7000CE010E940526D1CF809193038111CDCF52
:101D8000CE010E949825C9CF80918D0390918E033A
:101D9000EDB7FEB7A885B9859D0121503109398776
:101DA0002887319721812C938E179F0799F7789474
:101DB000CE010E94410680919403909195039D87E6
:101DC0008C872091980330919903820F931F9093F1
:101DD0009903809398030FB6F89486B515B2909145
:101DE00089030FBE10FE03C08F3F09F091501124EC
:101DF0000024990F990F880F001C880F001C902950
:101E00009F878E8740E050E0BA01CE014096DF9177
:101E1000CF910C94270EDF91CF910895CF92DF924E
:101E2000EF92FF920F931F93CF93DF936C017A0190
:101E30008B01C0E0D0E0CE15DF0581F0D8016D91B7
:101E40008D01D601ED91FC910190F081E02DC6014C
:101E50000995892B11F02196EECF7E01C701DF9104
:101E6000CF911F910F91FF90EF90DF90CF90089549
:101E7000CF93DF931F92CDB7DEB76983DC01ED917D
:101E8000FC910280F381E02D41E050E0BE016F5FE4
:101E90007F4F09950F90DF91CF91089583E0809354
:101EA000E9008091F200882319F08AE38093E8002A
:101EB00008958F929F92AF92BF92CF92DF92EF924E
:101EC000FF920F931F93CF93DF936C017B018A01E5
:101ED00080913601882309F45CC0809177038823C0
:101EE00009F457C08091740380FF05C08091E00021
:101EF00082608093E000E801B12C8AEFA82E93E085
:101F0000892E2AE3922E209711F4BB20D9F10E944A
:101F1000CA1F81110AC0AA94AA20D9F161E070E019
:101F200080E090E00E94C61AEECF282F30E0C21762
:101F3000D3070CF48C2F9FB7F8948092E90020917E
:101F4000E80025FF1DC0282F30E0C21BD30BF7018E
:101F5000815020F041914093F100FACFE20EF31E40
:101F6000BB2019F09092E8000AC08091E80085FD3E
:101F700007C09092E800BB24B394209709F0B12CDD
:101F80009FBFC1CF5D9884E680937503101611063C
:101F900044F081E090E0F6019383828380E090E05A
:101FA00001C0C801DF91CF911F910F91FF90EF9079
:101FB000DF90CF90BF90AF909F908F9008950E9438
:101FC000CA1F90E008950F931F93CF93DF931F9242
:101FD000CDB7DEB78C01FC018485958597FF0EC0D7
:101FE000CE0101960E949C1F019719F4898190E00F
:101FF00002C08FEF9FEFF80195878487F8018485F1
:1020000095850F90DF91CF911F910F910895CF93F8
:10201000DF931F92CDB7DEB7FC018485958597FDD0
:1020200005C02FEF3FEF358724870BC0CE01019607
:102030000E949C1F019719F4898190E002C08FEFE4
:102040009FEF0F90DF91CF910895409171035091D0
:10205000720320916F033091700342175307B4F459
:102060009091E8009570E1F39091E80092FD19C01D
:102070008093F100809171039091720301968F73A8
:102080009927892B19F48EEF8093E80080917103D2
:10209000909172030196909372038093710381E093
:1020A000089580E00895615030F02091F100FC0126
:1020B00020830196F8CF289884E6809376030895CC
:1020C000FC01738762879B012B563F4F3187208726
:1020D0006115710539F0FB0185E5E217F30711F091
:1020E0008193FBCF0895FC01A0918703B0918803F1
:1020F000A817B90751F48281938190938803809344
:10210000870310C0DC01892B69F012968D919C9198
:102110001397E817F907B1F78281938113969C937F
:102120008E93129715820895EF92FF920F931F934B
:10213000CF93DF93CDB7DEB728970FB6F894DEBF05
:102140000FBECDBF80913404882309F447C084EECC
:102150008093BC008091BC0087FFFCCF80ED809312
:10216000BB0084EC8093BC008091BC0087FFFCCF57
:102170001092BB0084EC8093BC008091BC0087FF70
:10218000FCCF84EE8093BC008091BC0087FFFCCF25
:1021900081ED8093BB0084EC8093BC008091BC00F7
:1021A00087FFFCCFEDE2F4E084E394E034EC30937D
:1021B000BC002091BC0027FFFCCF2091BB002193E5
:1021C0008E179F07A1F784E88093BC008091BC0024
:1021D00087FFFCCF84E98093BC004EC080ED0E9455
:1021E0003D280E94002861E080912C040E94651A1D
:1021F00040E060912B0480912C040E9415280E94DD
:10220000002881ED0E943D280E9400288DE2E82EE2
:1022100084E0F82E00E010E00E94D927F7018193B6
:102220007F0106301105F9F061E080912C040E94D5
:10223000651A60E080912B040E94361A60E080915C
:102240002C040E94361A61E080912B040E94361AF9
:1022500060E080912B040E94361A60E080912C048B
:102260000E94651A02C00E94BB270F5F1F4F0730F4
:10227000110591F60E94A12780912D04482F4695C3
:10228000469546954E70942F990F990F490F8F7070
:10229000480F80912E04382F3695369536953E702E
:1022A000932F990F990F390F8F70380F80912F044A
:1022B000282F2F7087FF08C085FB992790F9FCE035
:1022C0009F9F200D112409C0807386958695869561
:1022D000982F990F990F890F280FE0913004609182
:1022E00031047091320480913304562F56955695DF
:1022F00056955E70952F990F990F590F6F70560F65
:10230000672F6695669566956E70962F990F990F53
:10231000690F7F70670F982F92959F708F707AE08A
:10232000979F800D112490E08053984F9F838E8358
:10233000782F8F819E2F28960FB6F894DEBF0FBEA0
:10234000CDBFDF91CF911F910F91FF90EF90089536
:102350002091510430915204C901079697FD0796C8
:1023600023E0959587952A95E1F720914F043091C8
:102370005004829FA001839F500D929F500D112405
:1023800060E070E080916A0490916B040C948C334F
:102390003091FA02313208F04BC08091D60281119F
:1023A000FCCF9091F90222E02093D60221E0209305
:1023B000D5022FEF2093D4021092D3023093D20291
:1023C000E9EDF2E0A2EBB2E020E0321721F041911A
:1023D0004D932F5FFACF1092B1022091B102990F65
:1023E000922B9093B1029091B002913061F41092CF
:1023F000B0029091B1029093BB009091BC0093FD0C
:10240000F8CF95EC01C095EE9093BC009091D60268
:102410009230E1F39091D4029F3F79F08091D40201
:10242000803241F08091D402803331F084E005C0E5
:1024300081E003C082E001C083E01092D8021092D4
:10244000FA021092D7020895DF92EF92FF920F9353
:102450001F93CF93DF93D82ED92FC62F8091680476
:1024600090916904009709F454C020916C0431E004
:102470003093D7022093F9021092D8021092FA02F8
:10248000DC01ED91FC910190F081E02D60E0099577
:10249000ED2CFD2E11E0D1E080916804909169044B
:1024A000CC2371F11032C8F00E94C81180916C04E5
:1024B000D093D7028093F9021092D8021092FA02B8
:1024C0008091680490916904DC01ED91FC91019088
:1024D000F081E02D60E0099511E080916804909111
:1024E0006904F7016491DC01ED91FC910190F081A8
:1024F000E02D09951F5FC150BFEFEB1AFB0ACCCF4F
:10250000DF91CF911F910F91FF90EF90DF900C948E
:10251000C811E0917804F0917904908180917E0453
:102520008095892380830D2D1D2FCC2309F439C07C
:10253000F80184912091660430916704232B31F0D7
:102540000E94D124C1500F5F1F4FEFCF28E030E031
:1025500040E8E0917404F091750490917C04582F48
:10256000542319F05081952B03C0508190959523E9
:102570009083E0917604F0917704508190917D04EE
:10258000952B9083E0917604F0917704508190919F
:102590007D04909595239083469521503109C9F685
:1025A000D1CFDF91CF911F910F91FF90EF90DF90EE
:1025B0000895EF92FF920F931F93CF93DF93809133
:1025C000680490916904892BD1F0209182043091A4
:1025D0008304409184045091850460E074E284EFA8
:1025E00090E00E94E231DA01C9014097A109B109E6
:1025F000B695A795979587958093B80016C080915A
:10260000660490916704892B31F080918004909149
:1026100081040E943B25E0917A04F0917B04908133
:1026200080917F0480958923808365E082EC95E02A
:102630000E94241260914F0461508BE494E00E9448
:10264000D8242091510430915204C901079697FD76
:10265000079633E0959587953A95E1F720914F04D9
:1026600030915004829F8001839F100D929F100D26
:102670001124C0916A04D0916B04809168049091F8
:1026800069040C0F1D1F009709F44CC020916C04C5
:1026900031E03093D7022093F9021092D8021092C1
:1026A000FA02DC01ED91FC910190F081E02D60E4F3
:1026B0000995FF24F394EE24E394809168049091AB
:1026C00069040C171D0759F1BFE1BF15D0F40E9432
:1026D000C81180916C04E092D7028093F9021092A5
:1026E000D8021092FA028091680490916904DC018A
:1026F000ED91FC910190F081E02D60E40995FF24BB
:10270000F39480916804909169046991DC01ED91E2
:10271000FC910190F081E02D0995F394CECF0E94B9
:10272000C81141C0E0917804F091790490818091C2
:102730007E04892B80830C171D07A9F189912091B4
:10274000660430916704232B19F00E94D124F3CF43
:1027500028E030E040E8E0917404F0917504909135
:102760007C04582F542319F05081952B03C05081BD
:10277000909595239083E0917604F09177045081B1
:1027800090917D04952B9083E0917604F0917704ED
:10279000508190917D04909595239083469521508A
:1027A0003109C9F6C8CF8091680490916904892BDA
:1027B000D1F0209186043091870440918804509193
:1027C000890460E074E284EF90E00E94E231DA0173
:1027D000C9014097A109B109B695A7959795879525
:1027E0008093B80017C0E0917A04F0917B04908147
:1027F00080917F04892B8083809166049091670487
:10280000892B41F0DF91CF911F910F91FF90EF90B5
:102810000C94D024DF91CF911F910F91FF90EF90F6
:102820000895009769F0FC0101900020E9F73197C5
:10283000AF01481B590BBC018BE494E00C940E0FC4
:1028400080E090E00895CF9390913404992309F4A7
:102850003FC094EE9093BC009091BC0097FFFCCFDA
:1028600090ED9093BB0094EC9093BC009091BC00D1
:1028700097FFFCCF8093BB0084EC8093BC008091D9
:10288000BC0087FFFCCF84EE8093BC008091BC002D
:1028900087FFFCCF81ED8093BB0084EC8093BC006C
:1028A0008091BC0087FFFCCF84EC8093BC008091BA
:1028B000BC0087FFFCCFC091BB0084E88093BC00C4
:1028C0008091BC0087FFFCCF84E98093BC0020C0CE
:1028D000C82F80ED0E943D280E94002861E0809171
:1028E0002C040E94651A4C2F60912B0480912C04BB
:1028F0000E9415280E94002881ED0E943D280E9418
:1029000000280E94D927C82F0E94BB270E94A12718
:102910008C2FCF910895CF93DF930E941114EC0177
:102920008EE992E00E9411148C0F9D1FDF91CF91D0
:1029300008953F924F925F926F927F928F929F92F3
:10294000AF92BF92CF92DF92EF92FF920F931F93BD
:10295000CF93DF9300D000D000D0CDB7DEB72C01ED
:102960003B014A015901C901079697FD07969C0151
:1029700093E0359527959A95E1F73C832B83C12CFD
:10298000D12CE12CF12C312CC3018E0D9F1D9A838B
:102990008983E016F106C4F51E821D822D813E81D9
:1029A0002A153B054CF5C90187709927892B11F031
:1029B000330C0EC0ED81FE81F7FD379683E0F5956F
:1029C000E7958A95E1F7EC0DFD1DE80DF91D3490B2
:1029D00037FE0CC021E030E049815A816D817E8153
:1029E000640D751D8BE494E00E946E188D819E81AC
:1029F00001969E838D83D2CF9FEFE91AF90A2B812E
:102A00003C81C20ED31EC0CF26960FB6F894DEBF0F
:102A10000FBECDBFDF91CF911F910F91FF90EF902F
:102A2000DF90CF90BF90AF909F908F907F906F90EE
:102A30005F904F903F9008950F931F93CF93DF9334
:102A400077FF04C0260F371F60E070E0DC011496AA
:102A5000CD91DC911597FB01E20FF31FCE17DF0735
:102A60001CF49E01261B370B121613060CF046C0F1
:102A7000FA0157FD3796DF01E3E0B595A795EA9592
:102A8000E1F7AC9FF001AD9FF00DBC9FF00D11245C
:102A90006E0F7F1FDC015F96ED91FC919097E60F22
:102AA000F71F4770552781E090E001C0880F4A95D5
:102AB000EAF7482F0130110539F078F0023011059E
:102AC000E9F42E0F3F1F13C02E0F3F1FE217F3072D
:102AD000A9F08081842B8193F9CF80952E0F3F1F21
:102AE000E217F30759F0908198239193F9CFE217F9
:102AF000F30721F0808184278193F9CFDF91CF9173
:102B00001F910F910895EF92FF920F931F93CF9310
:102B1000DF93EC0177FDA5C0EC80FD806E157F058D
:102B20000CF09FC057FF04C0240F351F40E050E059
:102B30008E819F81FA01E20FF31F8E179F071CF40D
:102B40009C01241B350B121613060CF08AC0922F21
:102B5000842F8695869586958E9DD0018F9DB00D8C
:102B600011246A0F7B1FAF8DB8A1A60FB71F477046
:102B7000B1F188E0841B482F682F70E0FB01E65418
:102B8000FA4FE491281798F4621B71092FEF30E097
:102B900002C0359527956A95E2F7E22301301105C9
:102BA00049F078F00230110509F05BC00EC0013029
:102BB000110519F48C91E82B0AC00130110508F0B9
:102BC00049C0E0958C91E82302C08C91E827EC93F2
:102BD000941708F446C02C813D81A20FB31FE92F42
:102BE000E41BE830F8F00230110561F48E2F9C915F
:102BF00090959C932C813D81A20FB31F8850883003
:102C0000B0F70FC081E00115110509F480E081954E
:102C10009E2F8C932C813D81A20FB31F985098302A
:102C2000C0F7E770EE23E9F0F0E0EE54FA4FE491DC
:102C30000130110539F048F00230110591F48C9102
:102C4000E82706C08C91E82B03C0E0958C91E8231F
:102C5000EC9307C00230110509F4B7CFAE0DBF1DCC
:102C6000BECFDF91CF911F910F91FF90EF9008950C
:102C7000FC018485958597FD0BC09FB7F89482E091
:102C80008093E9008091F2009FBF90E00196089543
:102C90009FB7F89482E08093E9008091F2009FBF93
:102CA00090E0089590E0FC013197EF30F105B0F528
:102CB000EB59FF4F0C942332809180008F7703C033
:102CC000809180008F7D80938000089580918000A6
:102CD000877FF9CF84B58F7702C084B58F7D84BD9F
:102CE0000895809190008F7707C0809190008F7D2C
:102CF00003C080919000877F809390000895809119
:102D0000C0008F7703C08091C0008F7D8093C0008A
:102D100008958091C200877F8093C200089508952E
:102D2000FC016370668B84819581268137816130D7
:102D300039F0633029F0918780873387228708959F
:102D4000318720879387828708956F927F928F9231
:102D50009F92AF92BF92CF92DF92EF92FF920F932A
:102D60001F93CF93DF93EC014B015A0169013801A6
:102D7000E881F9810284F385E02D0995E881F981E4
:102D80000288F389E02D87019601A501B401CE01E7
:102D90000995A501460D571D41505109E881F9815A
:102DA0000288F389E02D9601B401CE010995E881EE
:102DB000F9810088F189E02D9301A501B401CE01CC
:102DC0000995C80CD91CB60161507109E881F981D7
:102DD0000088F189E02D9301A501CE010995E881D4
:102DE000F9810688F789E02DCE01DF91CF911F91FF
:102DF0000F91FF90EF90DF90CF90BF90AF909F909A
:102E00008F907F906F9009948F929F92AF92BF9214
:102E1000CF92DF92EF92FF920F931F93CF93DF93A6
:102E20004C016B015A01E901DC01ED91FC91621743
:102E3000730781F40417150724F48B2D5801042F10
:102E4000182F0A191B0998012F5F3F4F048CF58D2D
:102E5000E02D12C04017510709F52617370724F453
:102E60008D2D6901C62FD82F9E012C193D092F5F8A
:102E70003F4F068CF78DE02D8701A501B601C401F7
:102E80000995DF91CF911F910F91FF90EF90DF9007
:102E9000CF90BF90AF909F908F9008950284F3855C
:102EA000E02D0995D401ED91FC910488F589E02D80
:102EB0009E01A501B601C4010995D401ED91FC91D3
:102EC0000688F789E02DC401DF91CF911F910F9102
:102ED000FF90EF90DF90CF90BF90AF909F908F903A
:102EE0000994EF92FF920F931F93DC011A960D91B4
:102EF0001C911B9718962D913C911997ED91FC917F
:102F000000A0F1A1E02D7B0140E050E060E070E026
:102F100009951F910F91FF90EF9008954F925F9246
:102F20006F927F928F929F92AF92BF92CF92DF92D9
:102F3000EF92FF920F931F93CF93DF936C012B01BE
:102F40005A0139014801DC01ED91FC910284F385BD
:102F5000E02D0995E201640C751CD601ED91FC9100
:102F6000C615D7055CF40088F189E02D870194012E
:102F7000A501BE01C60109952196EFCF0688F78904
:102F8000E02DC601DF91CF911F910F91FF90EF903F
:102F9000DF90CF90BF90AF909F908F907F906F9079
:102FA0005F904F9009948F929F92AF92BF92CF9271
:102FB000DF92EF92FF920F931F93CF93DF93EC0179
:102FC0005B014A016901E881F9810284F385E02D02
:102FD000099595012C0D3D1D21503109E881F9819C
:102FE0000488F589E02D78018401A401B501CE01A2
:102FF0000995E881F9810688F789E02DCE01DF91F6
:10300000CF911F910F91FF90EF90DF90CF90BF90E5
:10301000AF909F908F9009948F929F92AF92BF92A2
:10302000CF92DF92EF92FF920F931F93CF93DF9394
:10303000EC015B014A0169017801E881F9810284B0
:10304000F385E02D0995C80CD91C860101501109A2
:10305000E881F9810488F589E02D9501A401B50185
:10306000CE010995E881F9810688F789E02DCE0126
:10307000DF91CF911F910F91FF90EF90DF90CF9054
:10308000BF90AF909F908F9009940895EF92FF9218
:103090000F931F93DC01ED91FC9100A0F1A1E02DB5
:1030A00009951F910F91FF90EF9008950F931F9333
:1030B000DC01ED91FC91068CF78DE02D09951F91B7
:1030C0000F9108950F931F93DC01ED91FC91048CF7
:1030D000F58DE02D09951F910F910895DC01ED917B
:1030E000FC910084F185E02D09942F923F924F923C
:1030F0005F926F927F928F929F92AF92BF92CF9288
:10310000DF92EF92FF920F931F93CF93DF9300D044
:1031100000D000D0CDB7DEB72C017E836D836A016D
:103120005901C801FC82EB824801841A950A97FE76
:1031300003C091948194910835012D813E81621ADA
:10314000730A77FE03C0719461947108681479045E
:103150005CF43A2D2B2D5C01832F922F3D812E8123
:10316000DE82CD82C32ED22EAD81BE81AA16BB06D1
:103170005CF43C2D2D2D6C01832F922F3D812E81EF
:10318000BE82AD82A32EB22E85012D813E81021B0F
:10319000130B1C012C183D0837FE03C031942194F9
:1031A0003108780117FF03C03FEFE31AF30AF594E3
:1031B000E794C816D9062CF08FEF9FEF9A83898386
:1031C00004C0A1E0B0E0BA83A9832D813E81A2169C
:1031D000B30624F1D201ED91FC910484F585E02D34
:1031E0002B813C816814790424F44D815E81B60101
:1031F00003C0A6016D817E81C2010995E218F30822
:10320000F7FE06C029813A81C20ED31EE00EF11EE0
:103210008D819E8101969E838D83D7CF26960FB692
:10322000F894DEBF0FBECDBFDF91CF911F910F91FC
:10323000FF90EF90DF90CF90BF90AF909F908F90D6
:103240007F906F905F904F903F902F90089585ED05
:103250008093BC008091BC0084FDFCCF1092D6020C
:103260000895089508950E9487338F929F92AF9298
:10327000CF92EF92FF920F931F93CF93DF93EC01C6
:10328000262F898D9A8D009709F042C06A3059F433
:103290001D861C862D898E859F8538E0239F800D95
:1032A000911D112443C06D3009F4AAC08F89882371
:1032B000C9F03C898C859D8546E0349F800D911D29
:1032C0001124488559854817590764F41D861C86C2
:1032D0003D898E859F8548E0349F800D911D112486
:1032E0009F878E87EA88FB88088919894E855F85C4
:1032F0006C857D85AD88CC88CE010E94681D2C89A7
:103300008C859D8536E0239F800D911D11243EC044
:103310006A3079F41D861C862D89FC013696E4916D
:103320008E859F852E9F800D911D11249F878E87EE
:1033300067C06D3009F464C0FC01349634916317A2
:1033400008F45EC03196E491E61708F459C0462FA0
:10335000431B342FFC0132968590949047E0349FB4
:10336000800C911C1124F401329634913196E49131
:10337000332311F0E1110DC0F4013496E4912C894E
:103380008C859D85E29F800D911D11249D878C87E2
:1033900037C0F401359644915F89552319F15C8952
:1033A000E32FF0E0E40FF11D47FDFA955E9FB001B9
:1033B0005F9F700D11244C855D85460F571F6885F2
:1033C00079856417750774F41D861C863D89FC0198
:1033D0003696E4918E859F853E9F800D911D112428
:1033E0009F878E87EA88FB88088919894E855F85C3
:1033F0006C857D85AD88CC88CE010E94681DBCCFD0
:1034000081E090E0DF91CF911F910F91FF90EF90BD
:10341000CF90AF909F908F900895CF93DF93282FF8
:1034200030E0F901EB52FA4F8491F901E759F44F7A
:10343000D491F901EA56F44FC491CC2391F0811153
:103440000E945216EC2FF0E0EE0FFF1FE953FA4FE7
:10345000A591B491EC91ED2381E090E021F480E01E
:1034600002C080E090E0DF91CF9108951F93CF9349
:10347000DF93282F30E0F901EB52FA4F8491F901E4
:10348000E759F44FD491F901EA56F44FC491CC2393
:10349000C1F0162F81110E945216EC2FF0E0EE0FB2
:1034A000FF1FE857F44FA591B4919FB7F8941111FD
:1034B00004C08C91D095D82302C0EC91DE2BDC9314
:1034C0009FBFDF91CF911F910895CF93DF9390E03D
:1034D000FC01E759F44F2491FC01EA56F44F849122
:1034E000882361F190E0880F991FFC01E851FF4F9C
:1034F000C591D491FC01E857F44FA591B4916111A5
:1035000009C09FB7F8948881209582238883EC9125
:103510002E230BC0623061F49FB7F8948881322F5C
:10352000309583238883EC912E2B2C939FBF06C06C
:103530008FB7F894E8812E2B28838FBFDF91CF912E
:1035400008953FB7F8948091890390918A03A091E0
:103550008B03B0918C0326B5A89B05C02F3F19F0B3
:103560000196A11DB11D3FBFBA2FA92F982F882703
:10357000820F911DA11DB11DBC01CD0142E0660F5E
:10358000771F881F991F4A95D1F708958F929F92B0
:10359000AF92BF92CF92DF92EF92FF926B017C01CC
:1035A0000E94A11A4B015C01C114D104E104F10491
:1035B00001F10E9431270E94A11ADC01CB01881978
:1035C0009909AA09BB09883E9340A105B10560F39A
:1035D00021E0C21AD108E108F10888EE880E83E0E4
:1035E000981EA11CB11CC114D104E104F10419F707
:1035F000DBCFFF90EF90DF90CF90BF90AF909F9088
:103600008F9008951F920F920FB60F9211242F934F
:103610003F938F939F93AF93BF9380912203909199
:103620002303A0912403B091250330916E0323E07E
:10363000230F2D3720F40196A11DB11D05C026E8EA
:10364000230F0296A11DB11D20936E0380932203C8
:1036500090932303A0932403B093250380918903BF
:1036600090918A03A0918B03B0918C030196A11DC8
:10367000B11D8093890390938A03A0938B03B09329
:103680008C03BF91AF919F918F913F912F910F909C
:103690000FBE0F901F9018951F920F920FB60F92AA
:1036A00011242F933F934F935F936F937F938F9347
:1036B0009F93AF93BF93EF93FF9380916A03909191
:1036C0006B03A0916C03B0916D030196A11DB11D18
:1036D00080936A0390936B03A0936C03B0936D0384
:1036E00080916A0390916B03A0916C03B0916D037C
:1036F00080916903811118C081E0809369038091F2
:103700006A0390916B03A0916C03B0916D03809359
:103710006A0390936B03A0936C03B0936D03E0E096
:10372000F0E0099510926903FF91EF91BF91AF917D
:103730009F918F917F916F915F914F913F912F91C9
:103740000F900FBE0F901F9018951F920F920FB6FB
:103750000F9211242F933F934F935F936F937F9317
:103760008F939F93AF93BF93EF93FF938091B90093
:10377000887F803609F49CC068F5883209F45BC004
:1037800090F4803109F454C038F4882309F4F6C069
:10379000883009F44DC0F6C0883109F44CC080323D
:1037A00009F45DC0EFC0803409F468C048F4803388
:1037B00009F455C0883309F0E5C08093D402D8C01D
:1037C000803509F44FC0883509F45DC0883409F0AC
:1037D000D9C0D6C0883909F4C7C0A8F4883709F41D
:1037E00067C038F4883609F463C0803709F460C0D4
:1037F000C9C0883809F4B8C0803909F45FC080387E
:1038000009F0C0C05BC0803B09F486C038F4803A40
:1038100009F466C0883A09F47FC0B4C0803C09F45A
:10382000A7C0883C09F4A4C0883B09F48AC0AAC098
:103830008091B10210C09091D3028091D20298176A
:1038400070F5E091D30281E08E0F8093D302F0E017
:10385000EE54FD4F80818093BB0085EC86C0809341
:10386000D4028EC0E091D30281E08E0F8093D30208
:103870008091BB00F0E0EE54FD4F80839091D30225
:103880008091D2026EC0E091D30281E08E0F8093CE
:10389000D3028091BB00F0E0EE54FD4F8083809115
:1038A000D50281116DC081E08093B00284EA61C0CD
:1038B00083E08093D60210926803CFCF8091680393
:1038C000803208F051C0E091680381E08E0F809350
:1038D00068038091BB00F0E0E85BFC4F8083BDCFC4
:1038E00085EC8093BC001092D602809168038032F0
:1038F00030F4E0916803F0E0E85BFC4F10826091E7
:10390000680370E0E0912003F091210388E493E0E4
:1039100009951092680336C084E08093D602109215
:10392000470310924603E0911E03F0911F0309958F
:1039300080914603811105C081E080934603109277
:103940002603E091470381E08E0F80934703F0E068
:10395000EA5DFC4F80818093BB009091470380918A
:103960004603981708F479CF85E88093BC000AC015
:1039700085EC8093BC001092D60204C01092D40251
:103980000E942719FF91EF91BF91AF919F918F9165
:103990007F916F915F914F913F912F910F900FBE4B
:1039A0000F901F90189540914603262F30E0240F6A
:1039B000311D21323105DCF42091D6022430C9F4C6
:1039C000FC0180E090E0861758F430914603219185
:1039D000DC01AA5DBC4FA30FB11D2C930196F3CF60
:1039E00080914603680F6093460380E0089581E06C
:1039F000089582E0089580917D0381110DC082E0D9
:103A00008093790384E080937A0310927C03109270
:103A10007B0381E080937D0389E793E00895DF9243
:103A2000EF92FF920F931F93CF93DF93D82E8A01CB
:103A30007B01E40EF51EEB01CE15DF0571F0D7FE1C
:103A400003C0FE01849101C088810E942510219647
:103A50008111F2CF8FEF9FEF01C0C801DF91CF91AD
:103A60001F910F91FF90EF90DF9008950F931F9398
:103A7000CF93DF931F92CDB7DEB782E0898342E414
:103A800050E064EF75E080E80E940F1D0E94FB1C6F
:103A9000DC0112960D911C9113970115110589F007
:103AA000D801ED91FC910280F381E02DBE016F5FA2
:103AB0007F4FC801099597FD04C0F8010085118565
:103AC000ECCF89810F90DF91CF911F910F910895D5
:103AD0002F923F924F925F926F927F928F929F921E
:103AE000AF92BF92CF92DF92EF92FF920F931F930C
:103AF000CF93DF93CDB7DEB76B970FB6F894DEBFE9
:103B00000FBECDBF9B8F8A8F1B014A01D22E198712
:103B100008873701A982DC0159962D913C915A976B
:103B20002115310509F0FFC018968D919C911997C8
:103B3000681779070CF0E7C11A968D919C911B9735
:103B4000481759070CF0DFC1EC2DF0E0FB83EA8346
:103B50009B0146E0C49E200D311D11243D872C871A
:103B6000121613060CF0CFC16A2D70E07B876A87AE
:103B700083E0660F771F8A95E1F77F876E87CB0119
:103B8000880D991D181619060CF0BDC158968C9118
:103B9000811104C08FEA8D1508F4D394AA8DBB8DD2
:103BA000ED91FC9111970284F385E02DCD010995EB
:103BB000B5E0DB9EC0011124EC2DF0E0F98BE88B21
:103BC00091012B5F3F4F3B8B2A8B3D822C82210141
:103BD000AC01421953095D8B4C8B7981672F70E0E2
:103BE0007F8B6E8BC4010896998F888FEC89FD8935
:103BF000E40DF51DE759F94FD49054019F828E8250
:103C0000D0FE16C0AA8DBB8DED91FC91B1E0CB1218
:103C100009C02981213031F40484F585E02D2885FF
:103C2000398519C00684F785E02DE884F9841DC024
:103C3000488559854615570519F1AA8DBB8DED911B
:103C4000FC91B1E0CB120DC02981213051F40484E4
:103C5000F585E02D9301A501B2018A8D9B8D099513
:103C60000FC00684F785E02D73010A851B852A8124
:103C70003B814E815F816C817D818A8D9B8D099511
:103C8000D6943FEFA31AB30A4E815F816E897F8974
:103C9000460F571F5F834E83888D998DA816B906EE
:103CA00009F0AECF9FEF491A590AAC81BD81E8896E
:103CB000F989AE0FBF1FBD83AC832A893B894216A9
:103CC000530609F093CF488559854615570509F4E1
:103CD000F8C0AA8DBB8DED91FC91B1E0CB1211C063
:103CE0002981213071F4B1016B5F7F4F0088F18928
:103CF000E02D830128E030E0A4018A8D9B8D099599
:103D0000E0C06C857D854A815B81641B750B0684F0
:103D1000F785E02D73010E851F859A01A4018A8D18
:103D20009B8D0995CEC0F9013496E491DE1AF90114
:103D3000329685919491B7E0DB9E800D911D112400
:103D4000F901259134913B8B2A8BFC01259134910B
:103D50005901FC0132965490319634913C87329649
:103D600074903196149141E04C1518F059815230FD
:103D700068F0672D072C000C770B7D836C83812FF7
:103D8000012E000C990B9B838A8304C01B821A822C
:103D90001D821C82AA8DBB8DED91FC91119702842E
:103DA000F385E02DCD010995412CD12C612CF981B1
:103DB000EF2FF0E0FF83EE832C2D30E03B872A8746
:103DC000A401410F511D17FD5A955F8B4E8BB10118
:103DD000670D711D77FC7A95798F688F7C856716E2
:103DE00008F06FC0262D30E04A815B81420F531FDF
:103DF000AE81BF81A49FC001A59F900DB49F900D7F
:103E00001124F401E80FF91FF98BE88B842D712C34
:103E10004E895F89420F531F5D8B4C8B751408F0E0
:103E20004DC051E0580F5E87877041F4C50101967F
:103E3000EA89FB89EA0DFB1DD4905C01D7FE3AC0EC
:103E400061E0C61216C07981713099F4AA8DBB8DDC
:103E5000ED91FC9111970484F585E02D2885398535
:103E60004C895D89688D798D670D711DCD0109952E
:103E700021C08C819D81870D911DEA85FB858E9FD8
:103E8000B0018F9F700D9E9F700D1124620D731DE8
:103E9000AA8DBB8DED91FC9111970684F785E02DDD
:103EA000E884F9840E811F812A853B8548895989D8
:103EB000CD010995DD0C73948E85B0CF450C6394CC
:103EC0008DCFAA8DBB8DED91FC9111970688F78956
:103ED000E02DCD016B960FB6F894DEBF0FBECDBFBF
:103EE000DF91CF911F910F91FF90EF90DF90CF90D6
:103EF000BF90AF909F908F907F906F905F904F900A
:103F00003F902F9009946B960FB6F894DEBF0FBECA
:103F1000CDBFDF91CF911F910F91FF90EF90DF9078
:103F2000CF90BF90AF909F908F907F906F905F9059
:103F30004F903F902F90089520917703211103C057
:103F40008FEF9FEF08955FB7F89422E02093E90088
:103F50002091F20030E01216130614F421E030E054
:103F6000422FFC0184E6415038F028988093760374
:103F70009091F1009193F7CF2115310521F08091B7
:103F8000F200882319F05FBFC90108958BE6809382
:103F9000E800F9CF2FB7F89483E08093E90090917F
:103FA000E800892F807295FF04C09091F20080E4B0
:103FB000891B2FBF08951F920F920FB60F921124E5
:103FC0008F939F938091E1009091E100937F909374
:103FD000E10083FF0FC01092E90091E09093EB00A5
:103FE0001092EC0092E39093ED001092770398E02A
:103FF0009093F00082FF20C093E09093E9009091AD
:10400000F200992319F09AE39093E80090917503D8
:10401000992339F0909175039150909375039923EA
:1040200089F190917603992339F09091760391501C
:1040300090937603992341F184FF10C08091E200B0
:104040008E7E81608093E2008091E1008F7E80937C
:10405000E100809174038E7E806111C080FF16C0E4
:104060008091E2008E7E80618093E2008091E10089
:104070008E7E8093E100809174038E7E81608093B8
:10408000740304C05D9ACDCF289AD6CF9F918F91AB
:104090000F900FBE0F901F9018951F920F920FB6A2
:1040A0000F921124CF92DF92EF92FF920F931F9302
:1040B0002F933F934F935F936F937F938F939F9330
:1040C000AF93BF93EF93FF93CF93DF93CDB7DEB75B
:1040D0006C97DEBFCDBF1092E9008091E80083FFAE
:1040E000FBC168E0CE0145960E94531082EF809399
:1040F000E8008D8987FF05C09091E80090FFFCCF14
:1041000003C09EEF9093E800982F907609F0C6C008
:104110009E894F89588D2F89F88C91110CC0803859
:1041200029F4809173038093F10002C01092F10092
:104130001092F10045C1913051F4811141C14130DB
:10414000510509F03DC1809173038D7F0BC0933001
:1041500061F4811135C14130510509F031C18091BF
:1041600073038260809373032BC1953049F480916F
:10417000E80080FFFCCF822F80688093E30020C19D
:10418000963009F05EC00B8D1C8D22E01092E90084
:104190001092720310927103F21232C010927003E7
:1041A00010926F030E94361D99E0BE016F5F7F4F32
:1041B000DB01E92F1D92EA95E9F79983FA8291E0F4
:1041C0009E8390EA98879AEF9987209171033091A6
:1041D0007203275F3F4F3C832B838D831092E9004E
:1041E00010927203109271031093700300936F0387
:1041F00049E050E080E00E940F1D0E94361DE0C0A3
:104200001093700300936F030E94FB1CDC01129655
:104210000D911C9113970115110509F4BBC0D8012C
:10422000ED91FC910480F581E02DBE016B5E7F4F26
:10423000C8010995009709F0C7C0F80100851185EC
:10424000EACF973009F445C1983021F481E080939A
:10425000F100B6C0993009F0B3C0837009F039C1DC
:10426000E4E6F1E081E031E096E32081211109C02C
:104270008EE78093EA001092EA008F89809377039B
:104280009FC08093E9003093EB0021912093EC00D4
:104290009093ED008F5F873041F7EACF8B8D9C8D37
:1042A0001092E900109272031092710390937003C0
:1042B00080936F03898D811153C08E899D89913AB6
:1042C00049F4813209F005C147E050E06FE271E046
:1042D00080E0BBC0913209F0FCC0833269F48F8961
:1042E000988DA0E0B0E080932B0190932C01A093D7
:1042F0002D01B0932E0164C0803269F48091E800F2
:1043000082FFFCCF67E08FE291E00E9453108BEFB9
:104310008093E80055C0823209F052C08F898093A3
:104320003601EEEFFFE7859194918B3F9C4D19F09C
:10433000E0E0F8E002C0EEEFFAE080912F0190910A
:104340003001A0913101B0913201803B9440A10530
:10435000B10509F09EC08091360180FF79C099C0F7
:104360000E94FB1CFC01028113810115110509F457
:10437000B0C0D801ED91FC910190F081E02DBE011B
:104380006B5E7F4FC801099581111AC0F801008545
:104390001185EBCFF1E0FF1609F44EC0F3E0FF12F8
:1043A00098C08F89882309F44AC0823089F440E894
:1043B00060E188E596E00E94402E882309F489C0D8
:1043C0008EEF8093E80088C018161906CCF381C0E0
:1043D000813029F440E86BE08CE496E0ECCF833048
:1043E00009F077C00E94FB1CDC011296ED90FC9056
:1043F00013978E010F5F1F4F6801E114F10479F0EC
:10440000D701ED91FC910680F781E02DB801C7013D
:104410000995080F111DF701E084F184EECFD80152
:104420001C92F60101900020E9F73197BF016C1949
:104430007D0940E0C601BFCF6AE376E002C066E3D3
:1044400076E0FB01449150E080E80E940F1DB8CF58
:10445000EE3F2AE0F20751F0808191818737A7E78C
:104460009A0721F09093FF0A8093FE0A87E797E767
:104470009183808380916000809378039BE088E142
:104480000FB6F894A895809360000FBE90936000DB
:1044900097CF808191818737974709F091CFA89571
:1044A00080916000886180936000809178038093A0
:1044B0006000EE3FBAE0FB0739F08091FE0A909170
:1044C000FF0A918380837CCF1092FF0A1092FE0A2C
:1044D00077CF81E28093EB006C960FB6F894DEBF45
:1044E0000FBECDBFDF91CF91FF91EF91BF91AF9103
:1044F0009F918F917F916F915F914F913F912F91FC
:104500001F910F91FF90EF90DF90CF900F900FBE13
:104510000F901F901895E0911D0380911C03E817E0
:1045200030F4F0E0E450FD4F808190E008958FEF8B
:104530009FEF089590911D0380911C03981750F4EC
:10454000E92FF0E0E450FD4F208130E09F5F909331
:104550001D0302C02FEF3FEFC901089580911C0396
:1045600090E020911D03821B91090895FC0177FDC5
:10457000B9C080859185681779070CF0B3C057FDE5
:10458000B1C082859385481759070CF00895868934
:10459000823079F484819581DC01A61BB70BBD01C3
:1045A0006150710986819781DC01A41BB50BAD01B7
:1045B0000EC0833009F084C064277527CA0186279E
:1045C00097276827792746815781481B590B415007
:1045D00051092130310531F048F12230310509F41B
:1045E0004AC00895CA0157FD07969C01A3E035957E
:1045F0002795AA95E1F7A481B5812A9FC0012B9F39
:10460000900D3A9F900D1124680F791F078CF0A12F
:10461000E02DE60FF71F4770552781E090E001C0BD
:10462000880F4A95EAF79081892B48C0CA0157FD47
:1046300007969C0193E0359527959A95E1F7A4811B
:10464000B5812A9FC0012B9F900D3A9F900D112498
:10465000680F791F078CF0A1E02DE60FF71F477058
:10466000552781E090E001C0880F4A95EAF78095D0
:104670009081892323C0CA0157FD07969C0183E0DE
:10468000359527958A95E1F7A481B5812A9FC001C8
:104690002B9F900D3A9F900D1124680F791F078C66
:1046A000F0A1E02DE60FF71F4770552781E090E05D
:1046B00001C0880F4A95EAF7908189278083089581
:1046C000813009F086CF642775274627572764274E
:1046D000752784819581DC01A61BB70BBD01615054
:1046E000710977CF0895089580E090E00895CF9202
:1046F000DF92EF92FF920F931F93CF93DF937C0192
:10470000CB018A012091D702222389F0EB016B01B2
:10471000C40ED51ECC15DD0569F06991D701ED9168
:10472000FC910190F081E02DC7010995F3CF642F32
:104730000E94D31CC801DF91CF911F910F91FF9070
:10474000EF90DF90CF900895CF93DF931F92CDB776
:10475000DEB769832091D7022223D1F02091FA029B
:10476000203240F021E030E0FC013383228380E0FE
:1047700090E015C08091D802E82FF0E0E752FD4F9D
:10478000998190838F5F8093D8028093FA0205C04D
:1047900061E0CE0101960E94D31C81E090E00F9071
:1047A000DF91CF9108950F931F93CF93DF93DC0197
:1047B0005696EC915697E23071F0E330E9F0E13033
:1047C00079F5FB0114960D90BC91A02DA41BB50B9F
:1047D000A21BB30B18C0EC01EC81FD81E61BF70BAB
:1047E000BF0161507109EE81FF81DF01A41BB50B90
:1047F000AD01421B530B14C0DA01EC01EE81FF81C5
:10480000E61BF70B3197F7FD0DC0EC014E815F8180
:10481000E417F5073CF4AF01BD010E941C1502C06E
:104820000E948315DF91CF911F910F9108950F93EF
:104830001F93DC015696EC915697E23061F0E3301D
:1048400009F1E13081F51496ED91FC911597E41B87
:10485000F50B319723C0DC011496ED91FC9115976F
:10486000DF01A61BB70BBD01DC011696ED91FC9193
:104870001797DF01A41BB50BAD0141505109621B15
:10488000730B11C0FA01DC0116964D915C911797DC
:10489000DA01A61BB70BBD01621B730BAB01BF0195
:1048A0000E9483150CC057FD0AC0DC011696ED91DD
:1048B000FC9117974E175F0714F40E941C151F9167
:1048C0000F910895DC0115962C91159722FF28C0B1
:1048D00015962C91287259F490939203809391032A
:1048E0006DE873E008960E94440E81E008950FB6CB
:1048F000F89426B515B2309189030FBE10FE03C09F
:104900002F3F09F0315011240024330F330F220FB1
:10491000001C220F001C3029FC01378726870CC0A1
:10492000DC0115962C91159721FF06C0ED91FC91A5
:104930000480F581E02D099580E0089510921D0313
:1049400010921C031092D8021092FA021092D60212
:1049500081E08093D5021092B00261E082E00E9473
:10496000361A61E083E00E94361AE9EBF0E08081BC
:104970008E7F808380818D7F808388E48093B800E0
:1049800085E48093BC0081E399E190931F038093B9
:104990001E0382E399E190932103809320030895FD
:1049A00008958EBD00000DB407FEFDCF8EB50895AD
:1049B0001F93CF93DF93FC01858D968D009729F18E
:1049C000162FEF0121A131E03093D7022093F90295
:1049D0001092D8021092FA02DC01ED91FC91019044
:1049E000F081E02D60E009958D8D9E8DDC01ED91CB
:1049F000FC910190F081E02D612F09958D8D9E8DA8
:104A0000DF91CF911F910C94C811A5A5B6A59C91DB
:104A100083A9809589238C93838D948D892B31F084
:104A2000862FDF91CF911F910C94D12428E030E0A4
:104A300080E8A1A5B2A591A9462F482319F04C9171
:104A4000942B03C04C91909594239C93A3A5B4A55B
:104A50004C9192A9942B9C93A3A5B4A54C9192A997
:104A6000909594239C9386952150310911F7DF91FD
:104A7000CF911F9108958CBD9DBD08951F93CF9335
:104A8000DF93EC01162F8D8D9E8D892BB1F02FA910
:104A900038AD49AD5AAD60E074E284EF90E00E9419
:104AA000E231DA01C9014097A109B109B695A7958C
:104AB000979587958093B8000FC08B8D9C8D892B1F
:104AC00021F08DA99EA90E943B25EFA5F8A9908110
:104AD0008CA9809589238083111102C066EA01C0E8
:104AE00067EACE010E94D8248D8D9E8D892BB1F06E
:104AF0002BAD3CAD4DAD5EAD60E074E284EF90E077
:104B00000E94E231DA01C9014097A109B109B695C5
:104B1000A795979587958093B80006C0EFA5F8A94B
:104B200090818CA9892B8083DF91CF911F9108956B
:104B3000CF93DF93EC018A819B81BE01685F7F4F39
:104B4000009729F0FC0125812C72243039F0109255
:104B50009203109291038DE893E009C09093900323
:104B600080938F03909392038093910308960E9401
:104B7000440E0FB6F89486B515B2909189030FBE16
:104B800010FE03C08F3F09F0915011240024990FAB
:104B9000990F880F001C880F001C90299F878E8713
:104BA000DF91CF9108950F931F93CF93DF938C01E3
:104BB000005F1F4F141615061606170654F040E046
:104BC00050E0BA01C801DF91CF911F910F910C9471
:104BD000270EEC01C8010E94270E86E08D83C801D4
:104BE0000E94070E672B682B692B41F0809193037D
:104BF0008111F5CFCE010E949825F1CF85E08D83FC
:104C0000DF91CF911F910F9108952091930321116E
:104C100002C00C9498250895FC0124853585211542
:104C20003105F1F00FB6F89466B515B270918903AD
:104C30000FBE10FE03C06F3F09F071501124002415
:104C4000770F770F660F001C660F001C70294685D2
:104C50005785641B750B6217730744F00C94052687
:104C600020919303211102C00C94982508950F936D
:104C70001F93CF93DF93CDB7DEB729970FB6F89484
:104C8000DEBF0FBECDBF0E94A11A00914404109157
:104C900045042091460430914704DC01CB01801B80
:104CA000910BA20BB30B8C329140A105B10558F3C7
:104CB000F8948091390490913A049A838983E09121
:104CC0003E04F0913F04DF01119680818987909125
:104CD0003504E0914804F091490480914A049923F5
:104CE00009F42EC09081982B988790818095892314
:104CF0008F838F818C8388E08B8358856F81498572
:104D00003B812C8189819A81508347FD252F3A95DB
:104D10002083262F39F0441F00C00000608300006C
:104D200000C0F2CF38E04D9160830000019761F739
:104D3000F0934904E093480449873B832C8338C0AF
:104D40009081982B98879081809589238F838F817C
:104D50008E8388E08D8358856F8149853D812E81C2
:104D600089819A81508347FD252F00C000C0208390
:104D700000C000C000C000C000C060830000262F3B
:104D80003A9541F0441F000000C000C000C000C0C0
:104D900000C0E8CF38E04D9100C0608300C00197AB
:104DA00009F7F0934904E093480449873D832E8333
:104DB0009A83898378940E94A11A60934404709323
:104DC0004504809346049093470429960FB6F894BF
:104DD000DEBF0FBECDBFDF91CF911F910F91089520
:104DE000DC0190913D04992361F0699FB001112489
:104DF000672F949FA0011124452F929F90011124A9
:104E0000232F3091430480914004E0913E04F091BF
:104E10003F04381308C0CD01880F991F8A0F9B1FCC
:104E20008E0F9F1F0BC0CD01880F991F880F991FF0
:104E30008E0F9F1FFC01E30FF11D10823091400483
:104E4000FC01E30FF11D608330914104FC01E30F8D
:104E5000F11D408330914204FC01E30FF11D2083DA
:104E60000895CF93DF9380919103909192030097DF
:104E700021F0DF91CF910C940C2680919303811146
:104E80005DC0C0918703D091880380918503909184
:104E900086038C179D0759F0E881F9810680F78118
:104EA000E02DCE0109950A80DB81C02DEECF8091E7
:104EB0008F0390919003892B09F02DC0209709F45E
:104EC0003DC08091960390919703892B01F10FB615
:104ED000F89486B515B2909189030FBE10FE03C0F9
:104EE0008F3F09F0915011240024990F990F880FDA
:104EF000001C880F001C90292E853F85821B930B78
:104F0000209198033091990382179307BCF0D093B6
:104F10009003C0938F03C0918F03D0919003E881D9
:104F2000F9810680F781E02DCE0109958A819B8168
:104F30009093900380938F03892B69F7DF91CF9132
:104F40000895CF93DF93CBE2D4E061E089810E94A2
:104F5000651A60E089810E94361A61E088810E94AA
:104F6000361A61E089810E94361A60E08981DF91FA
:104F7000CF910C94651ACF93DF93CBE2D4E061E03C
:104F800089810E94651A60E088810E94361A61E07A
:104F900089810E94361A61E088810E94361A60E099
:104FA00088810E94361A60E08981DF91CF910C944C
:104FB000651A1F93CF93DF9360E080912C040E94C9
:104FC000651AC7E0D0E010E061E080912B040E94F8
:104FD000361A80912C040E940D1A99270C2E01C0BC
:104FE000880F0A94EAF7182B60E080912B040E9446
:104FF000361A219748F7812FDF91CF911F9108959D
:1050000060E080912C040E94651A61E080912B047D
:105010000E94361A80912C040E940D1A0197D1F338
:1050200060E080912B040C94361AEF92FF920F935C
:105030001F93CF93DF93E82EF62EC7E0D0E0042F26
:1050400010E0B8010C2E02C0759567950A94E2F73E
:1050500061708E2D0E94361A61E08F2D0E94361AE3
:1050600060E08F2D0E94361A219758F7DF91CF917B
:105070001F910F91FF90EF9008951F93CF93DF93AF
:10508000182FCBE2D4E061E089810E94651A61E0CB
:1050900089810E94361A61E088810E94361A60E098
:1050A00089810E94361A60E088810E94361A412F59
:1050B00068818981DF91CF911F910C941528CF933E
:1050C000DF93C3E5D1E0D093A703C093A60386EA9C
:1050D00093E00E94102ED093BF03C093BE038EEBCB
:1050E00093E00E94102ED093D703C093D60386ED91
:1050F00093E00E94102ED093EF03C093EE038EEE48
:1051000093E00E94102ED0930704C093060486E01B
:1051100094E00E94102E80913E0490913F040E94E2
:10512000FE3280913B0490913C0497FD03C060E007
:105130000E94651A86EF91E090934C0480934B0493
:1051400080916A0490916B04009721F0DF91CF91D8
:105150000C94FE32DF91CF910895CF93DF93CDB7BA
:10516000DEB7AA970FB6F894DEBF0FBECDBF789416
:1051700084B5826084BD84B5816084BD85B582605C
:1051800085BD85B5816085BD80916E00816080930D
:105190006E00109281008091810082608093810076
:1051A0008091810081608093810080918000816086
:1051B0008093800080919100826080939100809123
:1051C0009100816080939100809190008160809334
:1051D00090008091C10084608093C1008091C100E3
:1051E00082608093C1008091C10081608093C10082
:1051F0008091C30081608093C3008091C000826071
:105200008093C0008091C20081608093C200809131
:105210007A00846080937A0080917A008260809323
:105220007A0080917A00816080937A0080917A0080
:10523000806880937A001092770310927303109223
:1052400074038091D70081608093D70080EA8093B7
:10525000D80089B5806189BD89B5826089BD09B4EE
:1052600000FEFDCF61E070E080E090E00E94C61A91
:105270008091D8008F7C80618093D8008091E0007D
:10528000807F8093E0008091E1008E7E8093E1003A
:105290008DE08093E200559A209A61E08BE00E94B5
:1052A000651A61E086E00E94651A62E08CE00E9467
:1052B000651A62E08DE00E94651A60E081E00E945C
:1052C000651A62E080E00E94651A61E08BE00E944E
:1052D000361A8AE993E00E949E2480912C04823041
:1052E00001F580912B048330E1F481E08093340454
:1052F00061E082E00E94361A61E083E00E94361A83
:105300008091B9008E7F8093B9008091B9008D7F24
:105310008093B9008CE08093B80085E08093BC0056
:1053200007C01092340461E080912B040E94651A3A
:1053300080913B0490913C0497FD08C061E00E947D
:10534000651A60E080913B040E94361A81E08093E8
:1053500036040E9494102AA33BA34CA35DA36EA322
:105360007FA388A799A7852F90E090932A01809327
:10537000290180916A0490916B04892B11F5209189
:10538000510430915204C901079697FD0796B3E086
:1053900095958795BA95E1F720914F043091500487
:1053A000AC01429FC001439F900D529F900D11246C
:1053B0000E94663290936B0480936A04892B09F4EF
:1053C000DFC00E94A8118091510490915204813253
:1053D00091050CF499C2BC016054710977FF02C0B9
:1053E0006F5F7F4F7595679580914F049091500442
:1053F0008255910997FD019600E410E022E530E026
:1054000042EF52E0959587950E94991482E080932F
:105410006D048091680490916904009709F48CC22E
:105420002CE320936C040E949E248091730487FDDA
:105430001EC061E00E94651A61E0809173040E94C1
:10544000361A61E070E080E090E00E94C61A60E0E9
:10545000809173040E94361A6AE070E080E090E068
:105460000E94C61A61E0809173040E94361A8091EE
:10547000680490916904892B09F41DC3209182046A
:1054800030918304409184045091850460E074E27B
:1054900084EF90E00E94E231DA01C9014097A1094E
:1054A000B109B695A795979587958093B80064E064
:1054B0008EE091E00E9424126091510461508BE4CF
:1054C00094E00E94D82464E08AE091E00E942412D3
:1054D00080916D04813009F405C364E18BE494E0AC
:1054E0000E94D82464E086E091E00E94241280911A
:1054F0004F04909150048038910509F006C38091C3
:105500005104909152048032910509F0EDC264E09B
:1055100082E091E00E94241269ED8BE494E00E9405
:10552000D82480916D04813009F40BC361EF8BE4C2
:1055300094E00E94D82466E086EF90E00E94241256
:105540008091680490916904892B09F4FCC2209130
:10555000860430918704409188045091890460E06A
:1055600074E284EF90E00E94E231DA01C9014097D1
:10557000A109B109B695A795979587958093B8002D
:1055800060E070E08BE494E00E94711782E0809309
:105590005F048093600481E090E090935E048093C8
:1055A0005D0490935C0480935B0410925804109205
:1055B000570410925A04109259040E94941029839F
:1055C0003A834B835C836D837E838F8398872A30F5
:1055D00010F480E305C0822F6AE00E94C231805D32
:1055E000809320013AE0822F632F0E94C231905DA8
:1055F000909321018AE3809322012A812A3010F4BA
:1056000080E305C0822F632F0E94C231805D8093AA
:1056100023013AE0822F632F0E94C231905D909364
:1056200024018AE3809325012B812A3010F480E342
:1056300005C0822F632F0E94C231805D80932601B6
:10564000822F6AE00E94C231905D909327011092F0
:10565000280180E291E00E948B141092580410926D
:10566000570480E190E090935A048093590481E1BB
:105670000E942314182F82E10E942314682F70E0E7
:1056800036E0759567953A95E1F7072E000C880B83
:10569000990B0E949B3020E030E040E85EE30E94DE
:1056A00050316B017C01612F70E080E090E00E943E
:1056B00099309B01AC01C701B6010E94F92F6B0123
:1056C0007C014B015C019B01AC010E94BD31882330
:1056D00019F082E992E01AC026013701E89477F8C0
:1056E0002FEF3FEF4FE75FE7C301B2010E94BD31EB
:1056F00081110FC02FEF3FEF4FE75FE7C301B2010A
:105700000E94653018162CF486E992E00E9411146C
:10571000A7C02FEF3FEF4FE75FE4C701B6010E943C
:105720004B3118161CF48AE992E0F0CF2FEF3FEFCF
:105730004FE75FECC701B6010E94653087FDF3CFEC
:1057400020E030E0A901C701B6010E94653087FF63
:105750000BC06DE28BE494E00E94351946015701BD
:10576000B7FAB094B7F8B0942AE037ED43EA5BE3B8
:10577000C501B4010E94F92F4B015C010E946A30FF
:105780006B017C010E9499309B01AC01C501B40101
:105790000E94F82F4B015C0119A28E010F5D1F4F73
:1057A0000AA7612E2AE0222E312C412C512CC70150
:1057B000B601A20191010E94E23169017A01605DA6
:1057C000D8016E938D01232B242B252B81F7CD013E
:1057D0000E9411146EE28BE494E00E94351983E07C
:1057E000F82E9AE0292E312C412C512CFA94FF20CE
:1057F000B9F120E030E040E251E4C501B4010E947B
:1058000050314B015C010E946A309B0140E050E046
:1058100019A20AA5162D762EC32ED42EE52ECA0166
:10582000B901A20191010E94E231605DF801629329
:105830008F01211531054105510589F7CF010E94DE
:105840001114672D7C2D8D2D9E2D0E9499309B016A
:10585000AC01C501B4010E94F82F4B015C01C6CF19
:105860008EE992E00E9411148AE590E0909358042A
:105870008093570480E190E090935A0480935904F8
:1058800081EA92E00E9411140E94D91268E873E143
:1058900080E090E00E94C61A0E94A8116CE271E0BC
:1058A00080E090E00E94C61A80912704909128041D
:1058B00090932A0480932904809187039091880310
:1058C00090932104809320048091200490912104DE
:1058D000009771F0DC01ED91FC910480F581E02DE1
:1058E0000995E0912004F091210482819381E8CF11
:1058F0001092930300E010E00E943127011511057A
:10590000D9F30E940000F8CFBC016052710977FF03
:1059100002C06F5F7F4F7595679580914F0490919E
:1059200050048357910997FD019600E210E023E7A8
:1059300030E042E151E066CD61E0809171040E9467
:10594000651A61E0809172040E94651A8091710469
:10595000082E000C990BFC01EA56F44FE491F0E09C
:10596000EE0FFF1FE857F44F2591349130937904DF
:1059700020937804FC01E759F44FE491E0937E040E
:1059800080917204082E000C990BFC01EA56F44F2A
:10599000E491F0E0EE0FFF1FE857F44FA591B491AA
:1059A000B0937B04A0937A04FC01E759F44FE4918F
:1059B000E0937F048C91E82BEC93809166049091A6
:1059C0006704892B09F434C01FB7F8948091AF02A3
:1059D000811127C0E7EAFBE08491EAE7FBE09491BC
:1059E000E82FF0E0EE0FFF1FE851FF4FA591B491B3
:1059F000EC91E92321F461E081E10E94361A61E033
:105A000081E10E94651A8CB580618CBD8CB5806483
:105A10008CBD61E08FE00E94651A61E080E10E9428
:105A2000651A8091AF028F5F8093AF021FBFFDCCDC
:105A300061E080916F040E94651A61E080917004BA
:105A40000E94651A80916F04082E000C990BFC01CE
:105A5000EA56F44FE491F0E0EE0FFF1FE857F44FE1
:105A6000259134913093750420937404FC01E75917
:105A7000F44FE491E0937C0480917004082E000CB4
:105A8000990BFC01EA56F44FE491F0E0EE0FFF1F92
:105A9000E857F44FA591B491B0937704A09376049E
:105AA000FC01E759F44FE491E0937D048C91E0957B
:105AB000E823EC93BACC8091660490916704892B1B
:105AC00031F080918004909181040E943B25E09107
:105AD0007A04F0917B04908180917F0480958923E2
